10002949SULEYMAN       BOZAN          19980811000000000000000
10002840SULEYMAN       BOZAN          19980811000000000000000
10002978SULEYMAN       BOZAN          19980811000000000000000
